:020000040000FA
:100000000C9480000C94A8000C94A8000C94A800F8
:100010000C94A8000C94A8000C94A8000C94A800C0
:100020000C94A8000C94A8000C94A8000C94A800B0
:100030000C94A8000C94A8000C94A8000C94A800A0
:100040000C94DD040C94A8000C944D050C94270529
:100050000C94A8000C94A8000C94A8000C94A80080
:100060000C94A8000C94A8004E414E494E49545996
:10007000494E46CDCCCC3D0AD7233C17B7D1387773
:10008000CC2B329595E6241FB14F0A000020410089
:1000900000C84200401C4620BCBE4CCA1B0E5AAED3
:1000A000C59D7400000000240027002A0000000005
:1000B00000250028002B0000000000230026002956
:1000C0000004040404040404040202020202020301
:1000D000030303030301020408102040800102040B
:1000E000081020010204081020000000080002018E
:1000F0000000030407000000000000000000F807F3
:1001000011241FBECFEFD8E0DEBFCDBF22E0AEE3AB
:10011000B1E001C01D92AD31B207E1F711E0A0E0FE
:10012000B1E0E2E8FCE102C005900D92AE33B10708
:10013000D9F710E0C0E8D0E004C02197FE010E948A
:10014000470CCF37D107C9F70E947F050C943F0EAB
:100150000C940000833081F028F4813099F08230D3
:10016000A9F008958730A9F08830C9F08430B1F43F
:10017000809180008F7D03C0809180008F77809375
:100180008000089584B58F7784BD089584B58F7DF0
:10019000FBCF8091B0008F778093B000089580915D
:1001A000B0008F7DF9CFCF93DF93282F30E0F90196
:1001B000E751FF4F8491F901EB52FF4FD491F901C0
:1001C000EF53FF4FC491CC23A1F081110E94AA00EC
:1001D000EC2FF0E0EE0FFF1FE954FF4FA591B49113
:1001E000EC91ED2381E090E009F480E0DF91CF9184
:1001F000089580E090E0FACF1F93CF93DF93282FEC
:1002000030E0F901E751FF4F8491F901EB52FF4FC4
:10021000D491F901EF53FF4FC491CC23A9F0162FCD
:1002200081110E94AA00EC2FF0E0EE0FFF1FE355B2
:10023000FF4FA591B4918FB7F894EC91111108C0BC
:10024000D095DE23DC938FBFDF91CF911F9108956E
:10025000DE2BF8CFCF93DF9390E0FC01EB52FF4F02
:1002600024918F539F4FFC0184918823D1F090E01B
:10027000880F991FFC01ED55FF4FA591B491FC012A
:10028000E355FF4FC591D49161110EC09FB7F8940B
:100290008C91E22FE0958E238C932881E223E883D2
:1002A0009FBFDF91CF9108958FB7F894EC91E22B27
:1002B000EC938FBFF6CF3FB7F89480917601909181
:1002C0007701A0917801B091790126B5A89B05C06E
:1002D0002F3F19F00196A11DB11D3FBFBA2FA92FC5
:1002E000982F8827BC01CD01620F711D811D911DC2
:1002F00042E0660F771F881F991F4A95D1F708952E
:100300008F929F92AF92BF92CF92DF92EF92FF9225
:100310004B015C010E945B016B017C010E945B014F
:100320006C197D098E099F09683E7340810591050E
:10033000A8F321E0821A9108A108B10888EEC80E3E
:1003400083E0D81EE11CF11C81149104A104B104C6
:1003500029F7FF90EF90DF90CF90BF90AF909F90E4
:100360008F9008952FB7F894609172017091730186
:1003700080917401909175012FBF0895AF92BF9243
:10038000CF92DF92EF92FF920F931F93CF93DF9361
:100390006C017B018B01040F151FEB015E01AE1890
:1003A000BF08C017D10759F06991D601ED91FC91B2
:1003B0000190F081E02DC6010995892B79F7C501DF
:1003C000DF91CF911F910F91FF90EF90DF90CF9031
:1003D000BF90AF900895FC01538D448D252F30E0E0
:1003E000842F90E0821B930B541710F0CF96089542
:1003F00001970895FC01918D828D981761F0A28D6F
:10040000AE0FBF2FB11D5D968C91928D9F5F9F7334
:10041000928F90E008958FEF9FEF0895FC01918DEA
:10042000828D981731F0828DE80FF11D858D90E057
:1004300008958FEF9FEF0895FC01918D228D892FF4
:1004400090E0805C9F4F821B91098F7399270895DC
:100450008AE791E00E941C0221E0892B09F420E048
:10046000822F089580E090E0892B29F00E942802D5
:1004700081110C9400000895FC01A48DA80FB92FE0
:10048000B11DA35ABF4F2C91848D90E001968F73BC
:100490009927848FA689B7892C93A089B1898C91DB
:1004A000837080648C93938D848D981306C002882A
:1004B000F389E02D80818F7D80830895EF92FF92F4
:1004C0000F931F93CF93DF93EC0181E0888F9B8D77
:1004D0008C8D98131AC0E889F989808185FF15C031
:1004E0009FB7F894EE89FF896083E889F989808154
:1004F0008370806480839FBF81E090E0DF91CF9123
:100500001F910F91FF90EF900895F62E0B8D10E044
:100510000F5F1F4F0F731127E02E8C8D8E110CC0B3
:100520000FB607FCFACFE889F989808185FFF5CFFE
:10053000CE010E943C02F1CFEB8DEC0FFD2FF11D9F
:10054000E35AFF4FF0829FB7F8940B8FEA89FB893B
:1005500080818062CFCFCF93DF93EC01888D882399
:10056000B9F0AA89BB89E889F9898C9185FD03C016
:10057000808186FD0DC00FB607FCF7CF8C9185FFFB
:10058000F2CF808185FFEDCFCE010E943C02E9CF02
:10059000DF91CF91089565E070E080E090E00E94E7
:1005A000800161E089E00E94FC0065E070E080E08D
:1005B00090E00E94800160E089E00C94FC0021E45E
:1005C0002093800024E1209381009B01AC010E94D4
:1005D000130B9B01AC0160E074E284EF96E40E948F
:1005E0007F0B0E94F10BE8E8F0E07183608360818B
:1005F000718190E080E00E949F0920E030E040E0BF
:100600005FE30E94000A0E94F10B70938B006093DD
:100610008A0081E0809370010895EEE3F1E0119289
:1006200011921586148681E0EC34F807C1F708951D
:10063000CF93DF9360E08AE00E94FC00C6E2D1E045
:100640008881229661E00E942A0181E0C433D807A4
:10065000B9F7DF91CF9108951F93CF93DF93C6E24F
:10066000D1E01881229660E0812F0E94FC0060E0BA
:10067000812F0E942A0181E0C433D80791F761E0FD
:100680008AE0DF91CF911F910C94FC00FC01019056
:100690000020E9F73197AF01481B590BBC018AE7ED
:1006A00091E00C94BE018F929F92AF92BF920F93F4
:1006B0001F93CF93DF93CDB7DEB7A1970FB6F89412
:1006C000DEBF0FBECDBF19A2423008F44AE08E0152
:1006D0000F5D1F4F842E912CB12CA12CA5019401EC
:1006E0000E94250CE62FB901CA01EA30F4F4E05D5E
:1006F000D801EE938D01232B242B252B79F790E045
:1007000080E0109719F0CD010E944603A1960FB624
:10071000F894DEBF0FBECDBFDF91CF911F910F9137
:10072000BF90AF909F908F900895E95CE1CFCF92FA
:10073000DF92EF92FF92CF93DF936B017C016DE22A
:100740008AE791E00E945E02EC0166277727CB01E1
:100750006C197D098E099F094AE00E9453038C0F92
:100760009D1FDF91CF91FF90EF90DF90CF90089584
:10077000EF92FF920F931F93CF93DF93EC017B01D6
:100780008A0188819981009729F02A813B81241769
:10079000350788F4B8016F5F7F4F0E94720D009794
:1007A00091F0998388831B830A832C813D81232BBD
:1007B00011F4FC0110821D830C83B701888199819B
:1007C0000E94380E0CC088819981009711F00E9418
:1007D000E90C198218821D821C821B821A82CE01AA
:1007E000DF91CF911F910F91FF90EF900895CF92DD
:1007F000DF92EF92FF920F931F93CF93DF93EAE57F
:10080000F1E088E0DF011D928A95E9F78AE791E03F
:100810000E941C02181619067CF5CAE5D1E001E613
:1008200011E00E94B2016093820170938301809372
:100830008401909385018AE791E00E94FA0197FF75
:1008400024C00E94B201C0908201D0908301E09048
:100850008401F09085016C197D098E099F09C09073
:100860007E01D0907F01E0908001F09081016C15B5
:100870007D058E059F05F8F2DF91CF911F910F91B5
:10088000FF90EF90DF90CF90089589930C171D078C
:1008900041F6F2CFEAE5F1E088E0DF011D928A95AA
:1008A000E9F70895BF92CF92DF92EF92FF920F93F4
:1008B0001F93CF93DF9386E2C82E81E0D82E08E104
:1008C00011E09EE3E92E91E0F92ED0E0C0E026E4AD
:1008D000B22EF6018081F2E0CF0ED11C0E94D3002F
:1008E000F701819391937F01C630D10509F442C08D
:1008F000F80180810E94D300F701958784872196B3
:100900000E5F1F4FC730D10521F7CEE3D1E06991CB
:100910007991072E000C880B990B97FF46C00E9417
:10092000970341E0CC34D40791F784E391E00E942F
:100930004603CCE4D1E069917991072E000C880B35
:10094000990B97FF36C00E94970381E0CA35D807FC
:1009500091F786E391E00E9446030E944A04DF91EA
:10096000CF911F910F91FF90EF90DF90CF90BF90AC
:100970000C940D03B0927C0080917A008064809387
:100980007A0080917A0086FDFCCF2091780030912A
:10099000790081E090E02D32314014F490E080E065
:1009A0009093590180935801AACF4AE00E945303C3
:1009B000B8CF4AE00E945303C8CF1F920F920FB6E0
:1009C0000F9211242F933F938F939F93AF93BF93D5
:1009D0008091720190917301A0917401B0917501A1
:1009E0003091710123E0230F2D3758F50196A11D99
:1009F000B11D209371018093720190937301A093B4
:100A00007401B09375018091760190917701A09166
:100A10007801B09179010196A11DB11D80937601F5
:100A200090937701A0937801B0937901BF91AF9132
:100A30009F918F913F912F910F900FBE0F901F901C
:100A4000189526E8230F0296A11DB11DD2CF1F9243
:100A50000F920FB60F9211242F933F934F935F93F2
:100A60006F937F938F939F93AF93BF93EF93FF9376
:100A70008AE791E00E943C02FF91EF91BF91AF9114
:100A80009F918F917F916F915F914F913F912F91A6
:100A90000F900FBE0F901F9018951F920F920FB6D8
:100AA0000F9211242F938F939F93EF93FF93E091D5
:100AB0008A01F0918B018081E0919001F091910188
:100AC00082FD1BC09081809193018F5F8F73209175
:100AD0009401821741F0E0919301F0E0E658FE4F57
:100AE000958F80939301FF91EF919F918F912F911B
:100AF0000F900FBE0F901F9018958081F4CFCF9369
:100B0000DF93CDB7DEB72C970FB6F894DEBF0FBEDC
:100B1000CDBF789484B5826084BD84B5816084BD86
:100B200085B5826085BD85B5816085BD80916E008B
:100B3000816080936E0010928100809181008260BC
:100B400080938100809181008160809381008091F9
:100B500080008160809380008091B10084608093E8
:100B6000B1008091B00081608093B00080917A00E4
:100B7000846080937A0080917A00826080937A000A
:100B800080917A00816080937A0080917A008068F9
:100B900080937A001092C100E0918A01F0918B015C
:100BA00082E08083E0918601F09187011082E091DC
:100BB0008801F09189018FEC808310929201E0917D
:100BC0008E01F0918F0186E08083E0918C01F0919D
:100BD0008D01808180618083E0918C01F0918D0195
:100BE000808188608083E0918C01F0918D0180810B
:100BF00080688083E0918C01F0918D0180818F7DF0
:100C000080830E944A0478E1E72E71E0F72E06E225
:100C100011E0F80180810E5F1F4F60E00E942A0101
:100C2000F7018081F2E0EF0EF11C60E00E942A01E2
:100C300021E00433120769F761E08AE00E942A018B
:100C400061E08AE00E94FC0061E089E00E942A01E4
:100C500060E070E080EC90E40E94DF020E940D03EF
:100C600062E6E62E61E0F62E06E211E0F8018081F0
:100C70000E5F1F4F0E94D300F701819391937F0174
:100C8000F1E004331F0791F74AE5242E41E0342EAA
:100C900050E0852E50E0952E64E670E080E090E014
:100CA0000E9480010E94F70380915A018053823094
:100CB00038F480915B018053823010F00E9452041E
:100CC000809160018053823008F051C00E94B201CF
:100CD0002B013C010E9418032AE5A22E21E0B22E2E
:100CE00036E2C32E31E0D32E7501F70181917F01E9
:100CF00061E0813319F0803329F460E0F6018081EE
:100D00000E94FC00F2E0CF0ED11C21E6E21621E0A9
:100D1000F20659F70E94520468E572E080E090E024
:100D20000E9480018AE791E00E941C0218161906B1
:100D300064F40E94F703F50181915F0180538230D2
:100D400048F6EE16FF06B9F7C1CF0E94B20164194A
:100D5000750986099709683B7B408105910508F470
:100D6000B9CF0E942C030E9452040E944A04809131
:100D70005A018332F9F480917001882309F424C167
:100D800010928000109281001092890010928800C9
:100D900010928B0010928A006AE070E080E090E090
:100DA0000E94800160E089E00E94FC0010927001C6
:100DB0000E944A0480915A018F3341F489E391E003
:100DC0000E94460386E391E00E94460380915A0107
:100DD000883701F580915B018033E1F40E941803AC
:100DE00060E088E00E94FC0080917001811102C0E7
:100DF0000E94CB0264EF71E080E090E00E948001ED
:100E00000E94520461E088E00E94FC000E942C03D2
:100E10000E944A0480915A01883701F580915B0154
:100E20008133E1F40E94180361E088E00E94FC0035
:100E300080917001811102C00E94CB0264EF71E0C9
:100E400080E090E00E9480010E94520460E088E00F
:100E50000E94FC000E942C030E944A0480915A01C7
:100E6000863609F080C018861F821A8619861C866D
:100E70001B86F10101900020E9F7AF014B5551406D
:100E80006AE571E0CE0107960E94B803EB84FC840A
:100E9000C7010397029708F060C0F1E0EF1AF1086C
:100EA0001A8219821C821B821E821D8250E040E041
:100EB00068E371E0CE0101960E94B8038B859C85A2
:100EC0008230910510F18E159F0508F47C01EF81A9
:100ED000F885EE0DFF1DD08010826F8178856F5FE1
:100EE0007F4F09F478C0FB0101900020E9F73197AA
:100EF000AF01461B570BCE0101960E94B8038F81AC
:100F00009885E80EF91EF701D08289819A81C12C5B
:100F1000D12C7601009721F00E9425086B017C01FD
:100F200089819A81009711F00E94E90C20E030E05D
:100F3000A901C701B6010E94200C87FD0EC020E068
:100F400030E040EF51E4C701B6010E949A0918163B
:100F500024F0C701B6010E94DF028F8198850097B7
:100F600011F00E94E90CA0907001AA2009F182E61C
:100F7000C82E81E0D82E96E2E92E91E0F92EB12C10
:100F8000F7018081F2E0EF0EF11C0E94D300F60120
:100F9000219131916F018217930721F0329791834C
:100FA0008083BA2C0E151F0559F7B1100E94520408
:100FB0008114910409F470CE0E942802882309F458
:100FC0006BCE0E94000068CE60E070E080E090E4AC
:100FD0000E94DF02EDCE89819A81009711F00E9474
:100FE000E90C1A8219821E821D821C821B8287CF05
:100FF000EAE7F1E01382128288EE93E0A0E0B0E02D
:1010000084839583A683B7838AE091E0918380836C
:1010100085EC90E09587848784EC90E097878687BD
:1010200080EC90E0918B808B81EC90E0938B828BB5
:1010300082EC90E0958B848B86EC90E0978B868B8E
:10104000118E128E138E148E0895662777270C94B6
:101050002908B0E0A0E0EFE2F8E00C94D20A5C01CD
:101060007B016115710519F0DB018D939C9385015E
:101070000F5F1F4FF501D0818D2F90E00E947909FD
:101080006C01892BB9F5DD32B9F50F5F1F4FD50122
:101090001196DC91C1E05801F1E0AF1AB10843E0CC
:1010A00050E060E770E0C5010E948209892B69F574
:1010B000680182E0C80ED11C45E050E06BE670E0AC
:1010C000C6010E948209892B21F4680197E0C90EAC
:1010D000D11CE114F10419F0D701CD92DC9260E04B
:1010E00070E080E89FEFC111FFC060E070E080E831
:1010F0009FE7FAC05801BBCFDB3229F485010E5FB0
:101100001F4FF501D181C0E0C6CF43E050E068E653
:1011100070E0C5010E948209892BE9F0F80110E016
:1011200000E020E030E0A9015F01B0ED8B2E8D0ED4
:1011300089E08815C8F19C2E689491F88C2F8870EE
:10114000C2FF16C0811102C00F5F1F4F3196D5013B
:10115000DC91C92DE9CFE114F10429F00E5F1F4F96
:10116000F7011183008360E070E080EC9FE7BCC072
:10117000882311F001501109A5E0B0E00E94C10AD6
:101180009B01AC01220F331F441F551F280D311D39
:10119000411D511D283999E93907490799E1590736
:1011A000A8F2C6609C2ED2CFAEEF8A1206C0C3FD55
:1011B0003CC09C2E689493F8C9CFDF7DD534A9F547
:1011C00080818D3239F4C061DF011296818162E045
:1011D00070E006C0DF018B32C1F3119661E070E070
:1011E00080535D01A61AB70A8A30F8F4E0E8CE16FB
:1011F000ECE0DE065CF4B601660F771F660F771F22
:10120000C60ED71ECC0CDD1CC80ED11C5D01FFEF35
:10121000AF1ABF0A8C9180538A30A8F1C4FF03C073
:10122000D194C194D1080C0D1D1DC1FF09C0E1145A
:10123000F10431F081E0A81AB108D701AD92BC9257
:10124000CA01B9010E949F09C370C33009F49058C4
:101250004B015C0120E030E0A9010E949A0988233B
:1012600009F440C0CFE9D0E017FF05C01195019502
:101270001109C7E8D0E06E01B8E1CB1AD10880E2CD
:10128000E82EF12C0FC0D501B1CFFE01259135918B
:10129000459154910E191F09C501B4010E94000A1D
:1012A0004B015C01D501C4010E151F0574F724978D
:1012B000F594E794CC16DD06A9F78A2F880F8B2FBB
:1012C000881F8F3F49F020E030E0A901C501B4013B
:1012D0000E949A09811106C082E290E09093180260
:1012E00080931702C501B401CDB7DEB7ECE00C94D2
:1012F000EE0A91110C946D0A803219F089508550D4
:10130000C8F70895FB01DC014150504088F08D91F1
:1013100081341CF08B350CF4805E659161341CF0D7
:101320006B350CF4605E861B611171F3990B0895A7
:10133000881BFCCF0E94DC0908F481E00895E89442
:1013400009C097FB3EF490958095709561957F4F0D
:101350008F4F9F4F9923A9F0F92F96E9BB279395BB
:10136000F695879577956795B795F111F8CFFAF4CB
:10137000BB0F11F460FF1BC06F5F7F4F8F4F9F4FFC
:1013800016C0882311F096E911C0772321F09EE85A
:10139000872F762F05C0662371F096E8862F70E0C0
:1013A00060E02AF09A95660F771F881FDAF7880F9A
:1013B0009695879597F90895990F0008550FAA0BF0
:1013C000E0E8FEEF16161706E807F907C0F0121658
:1013D0001306E407F50798F0621B730B840B950B5B
:1013E00039F40A2661F0232B242B252B21F40895B0
:1013F0000A2609F4A140A6958FEF811D811D08954D
:101400000E94130A0C94870A0E94790A38F00E94FD
:10141000800A20F0952311F00C94700A0C94760A3F
:1014200011240C94BB0A0E94980A70F3959FC1F393
:10143000950F50E0551F629FF001729FBB27F00D82
:10144000B11D639FAA27F00DB11DAA1F649F6627D7
:10145000B00DA11D661F829F2227B00DA11D621F26
:10146000739FB00DA11D621F839FA00D611D221FE0
:10147000749F3327A00D611D231F849F600D211DC4
:10148000822F762F6A2F11249F5750409AF0F1F047
:1014900088234AF0EE0FFF1FBB1F661F771F881FB0
:1014A00091505040A9F79E3F510580F00C94700A6E
:1014B0000C94BB0A5F3FE4F3983ED4F3869577958E
:1014C0006795B795F795E7959F5FC1F7FE2B880F56
:1014D000911D9695879597F90895992788270895DE
:1014E00097F99F6780E870E060E008959FEF80ECD7
:1014F000089500240A94161617061806090608957A
:1015000000240A9412161306140605060895092EDF
:101510000394000C11F4882352F0BB0F40F4BF2B4E
:1015200011F460FF04C06F5F7F4F8F4F9F4F08958E
:1015300057FD9058440F551F59F05F3F71F0479584
:10154000880F97FB991F61F09F3F79F08795089569
:10155000121613061406551FF2CF4695F1DF08C088
:10156000161617061806991FF1CF869571056105A5
:1015700008940895E894BB2766277727CB0197F94D
:1015800008950E94030BA59F900DB49F900DA49FFA
:10159000800D911D112408952F923F924F925F92DA
:1015A0006F927F928F929F92AF92BF92CF92DF9273
:1015B000EF92FF920F931F93CF93DF93CDB7DEB7D8
:1015C000CA1BDB0B0FB6F894DEBF0FBECDBF09946C
:1015D0002A88398848885F846E847D848C849B84C3
:1015E000AA84B984C884DF80EE80FD800C811B81D1
:1015F000AA81B981CE0FD11D0FB6F894DEBF0FBE00
:10160000CDBFED010895A29FB001B39FC001A39F7C
:10161000700D811D1124911DB29F700D811D11242B
:10162000911D08955058BB27AA270E942A0B0C949D
:10163000870A0E94790A38F00E94800A20F039F463
:101640009F3F19F426F40C94760A0EF4E095E7FB1C
:101650000C94700AE92F0E94980A58F3BA1762078F
:1016600073078407950720F079F4A6F50C94BA0A5D
:101670000EF4E0950B2EBA2FA02D0B01B9019001AD
:101680000C01CA01A0011124FF27591B99F0593FF1
:1016900050F4503E68F11A16F040A22F232F342F39
:1016A0004427585FF3CF469537952795A795F04087
:1016B0005395C9F77EF41F16BA0B620B730B840B9C
:1016C000BAF09150A1F0FF0FBB1F661F771F881F54
:1016D000C2F70EC0BA0F621F731F841F48F48795AC
:1016E00077956795B795F7959E3F08F0B0CF93959E
:1016F000880F08F09927EE0F9795879508950E9417
:10170000930B0C94870A0E94800A58F00E94790A71
:1017100040F029F45F3F29F00C94700A51110C94A9
:10172000BB0A0C94760A0E94980A68F39923B1F3D5
:10173000552391F3951B550BBB27AA2762177307F7
:10174000840738F09F5F5F4F220F331F441FAA1F8B
:10175000A9F335D00E2E3AF0E0E832D09150504047
:10176000E695001CCAF72BD0FE2F29D0660F771FF5
:10177000881FBB1F261737074807AB07B0E809F0DB
:10178000BB0B802DBF01FF2793585F4F3AF09E3F60
:10179000510578F00C94700A0C94BB0A5F3FE4F397
:1017A000983ED4F3869577956795B795F7959F5FA3
:1017B000C9F7880F911D9695879597F90895E1E0EF
:1017C000660F771F881FBB1F621773078407BA074E
:1017D00020F0621B730B840BBA0BEE1F88F7E095A9
:1017E00008950E94A00A88F09F5798F0B92F992772
:1017F000B751B0F0E1F0660F771F881F991F1AF0FC
:10180000BA95C9F714C0B13091F00E94BA0AB1E09C
:1018100008950C94BA0A672F782F8827B85F39F09B
:10182000B93FCCF3869577956795B395D9F73EF494
:1018300090958095709561957F4F8F4F9F4F08953C
:101840000E94DC0908F48FEF0895A1E21A2EAA1B6A
:10185000BB1BFD010DC0AA1FBB1FEE1FFF1FA21760
:10186000B307E407F50720F0A21BB30BE40BF50B5D
:10187000661F771F881F991F1A9469F760957095E6
:10188000809590959B01AC01BD01CF010895EE0FAD
:10189000FF1F0590F491E02D09940F931F93CF93B0
:1018A000DF938230910510F482E090E0E0911B021A
:1018B000F0911C0230E020E0B0E0A0E0309799F415
:1018C0002115310509F44AC0281B390B2430310594
:1018D000D8F58A819B816115710589F1FB0193839C
:1018E0008283FE0111C0408151810281138148171A
:1018F0005907E0F04817590799F4109761F01296CC
:101900000C93129713961C933296CF01DF91CF91CF
:101910001F910F91089500931B0210931C02F4CFA6
:101920002115310551F04217530738F0A901DB01A9
:101930009A01BD01DF01F801C1CFEF01F9CF90930A
:101940001C0280931B02CDCFFE01E20FF31F819397
:1019500091932250310939832883D7CF20911902DE
:1019600030911A02232B41F420910201309103019E
:1019700030931A0220931902209100013091010145
:101980002115310541F42DB73EB740910401509126
:101990000501241B350BE0911902F0911A02E217A0
:1019A000F307A0F42E1B3F0B2817390778F0AC0182
:1019B0004E5F5F4F2417350748F04E0F5F1F50935F
:1019C0001A0240931902819391939FCFF0E0E0E0D7
:1019D0009CCFCF93DF930097E9F0FC0132971382FD
:1019E0001282A0911B02B0911C02ED0130E020E0B8
:1019F0001097A1F420813181820F931F2091190249
:101A000030911A022817390709F061C0F0931A02C1
:101A1000E0931902DF91CF910895EA01CE17DF0715
:101A2000E8F54A815B819E0141155105B1F7E90155
:101A3000FB83EA8349915991C40FD51FEC17FD0729
:101A400061F4808191810296840F951FE901998349
:101A50008883828193819B838A83F0E0E0E0129601
:101A60008D919C9113970097B9F52D913C91119709
:101A7000CD010296820F931F2091190230911A0214
:101A80002817390739F6309751F510921C02109239
:101A90001B02B0931A02A0931902BCCFD383C28356
:101AA00040815181840F951FC817D90761F44E5F9B
:101AB0005F4F88819981480F591F518340838A81E4
:101AC0009B81938382832115310509F0B0CFF09378
:101AD0001C02E0931B029ECFFD01DC01C0CF1382EC
:101AE0001282D7CFB0E0A0E0E8E7FDE00C94CE0A88
:101AF0008C01009751F4CB010E944D0C8C01C80160
:101B0000CDB7DEB7E0E10C94EA0AFC01E60FF71F5F
:101B10009C0122503109E217F30708F49DC0D90156
:101B2000CD91DC911197C617D70798F0C530D10534
:101B300030F3CE0104978617970708F3C61BD70B1F
:101B40002297C193D1936D937C93CF010E94E90CAE
:101B5000D6CF5B01AC1ABD0A4C018C0E9D1EA09124
:101B60001B02B0911C02512C412CF12CE12C10973E
:101B700031F58091190290911A028815990509F0A2
:101B80005CC04616570608F058C08091000190913D
:101B90000101009741F48DB79EB740910401509127
:101BA0000501841B950BE817F90708F055C0F09361
:101BB0001A02E0931902F90171836083A0CF8D911D
:101BC0009C91119712966C90129713967C90139794
:101BD000A815B90559F56C0142E0C40ED11CCA1410
:101BE000DB0420F1AC014A195B09DA011296159762
:101BF00080F06282738251834083D9016D937C931C
:101C0000E114F10471F0D7011396FC93EE9312974F
:101C100076CF22968C0F9D1FF90191838083F3016B
:101C2000EFCFF0931C02E0931B0269CF48165906D0
:101C300008F42C017D01D3019ACFCB010E944D0CF9
:101C40007C01009749F0AE01B8010E942F0EC80137
:101C50000E94E90C870153CF10E000E050CFFB0158
:101C6000DC0102C001900D9241505040D8F7089518
:101C7000FB01DC0101900D920020E1F70895F8943A
:101C8000FFCF00001D028000000000005E02BE01C8
:101C9000EB01AB021C02FA010E020E000F00100055
:101CA00011001200130014000200030004000500DC
:101CB0000600070008007C000D0A003156380000BD
:107E0000112484B714BE81FFF0D085E080938100F7
:107E100082E08093C00088E18093C10086E0809377
:107E2000C20080E18093C4008EE0C9D0259A86E02C
:107E300020E33CEF91E0309385002093840096BBD3
:107E4000B09BFECF1D9AA8958150A9F7CC24DD24C4
:107E500088248394B5E0AB2EA1E19A2EF3E0BF2EE7
:107E6000A2D0813461F49FD0082FAFD0023811F036
:107E7000013811F484E001C083E08DD089C08234E0
:107E800011F484E103C0853419F485E0A6D080C0E4
:107E9000853579F488D0E82EFF2485D0082F10E0AE
:107EA000102F00270E291F29000F111F8ED06801E7
:107EB0006FC0863521F484E090D080E0DECF843638
:107EC00009F040C070D06FD0082F6DD080E0C81688
:107ED00080E7D80618F4F601B7BEE895C0E0D1E017
:107EE00062D089930C17E1F7F0E0CF16F0E7DF06D8
:107EF00018F0F601B7BEE89568D007B600FCFDCFD4
:107F0000A601A0E0B1E02C9130E011968C91119780
:107F100090E0982F8827822B932B1296FA010C0160
:107F200087BEE89511244E5F5F4FF1E0A038BF0790
:107F300051F7F601A7BEE89507B600FCFDCF97BE46
:107F4000E89526C08437B1F42ED02DD0F82E2BD052
:107F50003CD0F601EF2C8F010F5F1F4F84911BD097
:107F6000EA94F801C1F70894C11CD11CFA94CF0C13
:107F7000D11C0EC0853739F428D08EE10CD085E9AC
:107F80000AD08FE07ACF813511F488E018D01DD067
:107F900080E101D065CF982F8091C00085FFFCCF94
:107FA0009093C60008958091C00087FFFCCF809118
:107FB000C00084FD01C0A8958091C6000895E0E648
:107FC000F0E098E1908380830895EDDF803219F02E
:107FD00088E0F5DFFFCF84E1DECF1F93182FE3DFCA
:107FE0001150E9F7F2DF1F91089580E0E8DFEE27F6
:047FF000FF270994CA
:027FFE00040479
:00000001FF
